:04000000A0EFFFF07E
:020000040001F9
:10FF40000001DFEFFFF09496949A949E400E9B6E12
:10FF5000700ED36E200EC66E400EC76E1200076E76
:10FF6000829E9E9607C0C9FF9EA6FED7828E9E9651
:10FF7000829E06C0C9FF9EA6FED7828E030E026E29
:10FF8000E80E016EC5ECFFF01200000E056E000ECB
:10FF9000046E0AD0090E036E1C0EE82EFED7032E47
:10FFA000FCD700D0044A052A0150045C0550800AA1
:10FFB000036E0250800A0358D8B01200EBD7A3ECAE
:10FFC000FFF0000E066E900EAFECFFF0300E066EE6
:10FFD000930EAFECFFF0600E066E960EAFECFFF0E6
:10FFE000F00E066E9F0EAFECFFF0FF0E066E9F0E3A
:08FFF000AFECFFF000EF00F0A0
:06FFF800A0F4C4FFF8F7BD
:00000001FF
