:040000003EEF08F0D7
:1010000000010000000A00000064000000E8030086
:101010000010270000A086010040420F0080969833
:101020000000E1F50500CA9A3B00803FCDCC3DD7DA
:10103000233C12833AB7D138C62737388635C0D615
:1010400033CC2B32708930E7DB2EE53C1E42A20DFB
:1010500000803F00204100C842007A44401C4650B6
:10106000C34724744997184BBCBE4C6B6E4E031596
:0B1070005079AD60F349712566000067
:10107C0000EE01F0180EEE6AE806FDE1B60EF66E13
:10108C00100EF76E000EF86E00EE19F010EE10F068
:10109C000900F5CFEEFFE550E150FAE1000EF86ED5
:1010AC00100EF76E000163EF08F0810F810F830FB4
:0E10BC00830F930F850FAE0F880F00EF00F02B
:020000040001F9
:06FFF800A0F4C4FFF8F7BD
:00000001FF
